{"contracts/ChatApp.sol":{"ChatApp":{"abi":[{"inputs":[{"internalType":"address","name":"friend_key","type":"address"},{"internalType":"string","name":"name","type":"string"}],"name":"addFriend","outputs":[],"stateMutability":"nonpayable","type":"function"},{"inputs":[{"internalType":"address","name":"pubkey","type":"address"}],"name":"checkUserExists","outputs":[{"internalType":"bool","name":"","type":"bool"}],"stateMutability":"view","type":"function"},{"inputs":[{"internalType":"string","name":"name","type":"string"}],"name":"createAccount","outputs":[],"stateMutability":"nonpayable","type":"function"},{"inputs":[],"name":"getAllAppUser","outputs":[{"components":[{"internalType":"string","name":"name","type":"string"},{"internalType":"address","name":"accountAddress","type":"address"}],"internalType":"struct ChatApp.AllUserStruck[]","name":"","type":"tuple[]"}],"stateMutability":"view","type":"function"},{"inputs":[],"name":"getMyFriendList","outputs":[{"components":[{"internalType":"address","name":"pubkey","type":"address"},{"internalType":"string","name":"name","type":"string"}],"internalType":"struct ChatApp.friend[]","name":"","type":"tuple[]"}],"stateMutability":"view","type":"function"},{"inputs":[{"internalType":"address","name":"pubkey","type":"address"}],"name":"getUsername","outputs":[{"internalType":"string","name":"","type":"string"}],"stateMutability":"view","type":"function"},{"inputs":[{"internalType":"address","name":"friend_key","type":"address"}],"name":"readMessage","outputs":[{"components":[{"internalType":"address","name":"sender","type":"address"},{"internalType":"uint256","name":"timestamp","type":"uint256"},{"internalType":"string","name":"msg","type":"string"}],"internalType":"struct ChatApp.message[]","name":"","type":"tuple[]"}],"stateMutability":"view","type":"function"},{"inputs":[{"internalType":"address","name":"friend_key","type":"address"},{"internalType":"string","name":"_msg","type":"string"}],"name":"sendMessage","outputs":[],"stateMutability":"nonpayable","type":"function"}],"evm":{"bytecode":{"linkReferences":{},"object":"608060405234801561001057600080fd5b506111d9806100206000396000f3fe608060405234801561001057600080fd5b50600436106100885760003560e01c8063a24d41de1161005b578063a24d41de146100fd578063bd0f4d0d14610112578063ce43c03214610127578063de6f24bb1461014757600080fd5b8063133f50f51461008d578063255e9c11146100b5578063298daf5b146100d55780633b9f708d146100ea575b600080fd5b6100a061009b366004610e61565b61015a565b60405190151581526020015b60405180910390f35b6100c86100c3366004610e61565b61018a565b6040516100ac9190610ed0565b6100e86100e3366004610fa1565b6102bd565b005b6100e86100f8366004610fe3565b610411565b610105610660565b6040516100ac9190611036565b61011a610764565b6040516100ac91906110a7565b61013a610135366004610e61565b61086e565b6040516100ac9190611116565b6100e8610155366004610fe3565b610966565b6001600160a01b0381166000908152600160205260408120805482919061018090611129565b9050119050919050565b606060006101983384610b43565b905060026000828152602001908152602001600020805480602002602001604051908101604052809291908181526020016000905b828210156102b1576000848152602090819020604080516060810182526003860290920180546001600160a01b031683526001810154938301939093526002830180549293929184019161022090611129565b80601f016020809104026020016040519081016040528092919081815260200182805461024c90611129565b80156102995780601f1061026e57610100808354040283529160200191610299565b820191906000526020600020905b81548152906001019060200180831161027c57829003601f168201915b505050505081525050815260200190600101906101cd565b50505050915050919050565b6102c63361015a565b1561030e5760405162461bcd60e51b81526020600482015260136024820152725573657220616c72656164792065786973747360681b60448201526064015b60405180910390fd5b8061035b5760405162461bcd60e51b815260206004820152601860248201527f557365726e616d652063616e6e6f7420626520656d70747900000000000000006044820152606401610305565b336000908152600160205260409020610375908383610d38565b506040805160606020601f85018190040282018101835291810183815260009282919086908690819085018382808284376000920182905250938552505033602093840152508354600181018555938152819020825180519394600202909101926103e39284920190610dbc565b5060209190910151600190910180546001600160a01b0319166001600160a01b039092169190911790555050565b61041a3361015a565b6104605760405162461bcd60e51b815260206004820152601760248201527610dc99585d1948185b881858d8dbdd5b9d08199a5c9cdd604a1b6044820152606401610305565b6104698361015a565b6104b55760405162461bcd60e51b815260206004820152601760248201527f55736572206973206e6f742072656769737465726564210000000000000000006044820152606401610305565b336001600160a01b038416141561051e5760405162461bcd60e51b815260206004820152602760248201527f55736572732063616e6e6f7420616464207468656d6573656c76657320617320604482015266667269656e647360c81b6064820152608401610305565b6105283384610bda565b156105755760405162461bcd60e51b815260206004820152601f60248201527f54686573652075736572732061726520616c726561647920667269656e6473006044820152606401610305565b6105b6338484848080601f016020809104026020016040519081016040528093929190818152602001838380828437600092019190915250610cbe92505050565b336000818152600160205260409020805461065b92869290916105d890611129565b80601f016020809104026020016040519081016040528092919081815260200182805461060490611129565b80156106515780601f1061062657610100808354040283529160200191610651565b820191906000526020600020905b81548152906001019060200180831161063457829003601f168201915b5050505050610cbe565b505050565b60606000805480602002602001604051908101604052809291908181526020016000905b8282101561075b57838290600052602060002090600202016040518060400160405290816000820180546106b790611129565b80601f01602080910402602001604051908101604052809291908181526020018280546106e390611129565b80156107305780601f1061070557610100808354040283529160200191610730565b820191906000526020600020905b81548152906001019060200180831161071357829003601f168201915b50505091835250506001918201546001600160a01b0316602091820152918352929092019101610684565b50505050905090565b3360009081526001602081815260408084209092018054835181840281018401909452808452606094919290919084015b8282101561075b576000848152602090819020604080518082019091526002850290910180546001600160a01b0316825260018101805492939192918401916107dd90611129565b80601f016020809104026020016040519081016040528092919081815260200182805461080990611129565b80156108565780601f1061082b57610100808354040283529160200191610856565b820191906000526020600020905b81548152906001019060200180831161083957829003601f168201915b50505050508152505081526020019060010190610795565b60606108798261015a565b6108be5760405162461bcd60e51b8152602060048201526016602482015275155cd95c881a5cc81b9bdd081c9959da5cdd195c995960521b6044820152606401610305565b6001600160a01b038216600090815260016020526040902080546108e190611129565b80601f016020809104026020016040519081016040528092919081815260200182805461090d90611129565b801561095a5780601f1061092f5761010080835404028352916020019161095a565b820191906000526020600020905b81548152906001019060200180831161093d57829003601f168201915b50505050509050919050565b61096f3361015a565b6109b55760405162461bcd60e51b815260206004820152601760248201527610dc99585d1948185b881858d8dbdd5b9d08199a5c9cdd604a1b6044820152606401610305565b6109be8361015a565b610a035760405162461bcd60e51b8152602060048201526016602482015275155cd95c881a5cc81b9bdd081c9959da5cdd195c995960521b6044820152606401610305565b610a0d3384610bda565b610a685760405162461bcd60e51b815260206004820152602660248201527f596f7520617265206e6f7420667269656e64207769746820746865206769766560448201526537103ab9b2b960d11b6064820152608401610305565b6000610a743385610b43565b905060006040518060600160405280336001600160a01b0316815260200142815260200185858080601f016020809104026020016040519081016040528093929190818152602001838380828437600092018290525093909452505084815260026020818152604080842080546001808201835591865294839020875160039096020180546001600160a01b0319166001600160a01b03909616959095178555868301519085015585015180519596508695939450610b399392850192910190610dbc565b5050505050505050565b6000816001600160a01b0316836001600160a01b03161015610ba6576040516bffffffffffffffffffffffff19606085811b8216602084015284901b1660348201526048015b604051602081830303815290604052805190602001209050610bd4565b6040516bffffffffffffffffffffffff19606084811b8216602084015285901b166034820152604801610b89565b92915050565b6001600160a01b03808216600090815260016020819052604080832082015493861683528220015490911015610c0e579091905b60005b6001600160a01b03841660009081526001602081905260409091200154811015610cb457826001600160a01b031660016000866001600160a01b03166001600160a01b031681526020019081526020016000206001018281548110610c7857610c78611164565b60009182526020909120600290910201546001600160a01b03161415610ca2576001915050610bd4565b80610cac8161117a565b915050610c11565b5060009392505050565b6040805180820182526001600160a01b03848116825260208083018581528783166000908152600180845295812086018054808801825590825290839020855160029092020180546001600160a01b0319169190941617835551805193948594610d2f939185019290910190610dbc565b50505050505050565b828054610d4490611129565b90600052602060002090601f016020900481019282610d665760008555610dac565b82601f10610d7f5782800160ff19823516178555610dac565b82800160010185558215610dac579182015b82811115610dac578235825591602001919060010190610d91565b50610db8929150610e30565b5090565b828054610dc890611129565b90600052602060002090601f016020900481019282610dea5760008555610dac565b82601f10610e0357805160ff1916838001178555610dac565b82800160010185558215610dac579182015b82811115610dac578251825591602001919060010190610e15565b5b80821115610db85760008155600101610e31565b80356001600160a01b0381168114610e5c57600080fd5b919050565b600060208284031215610e7357600080fd5b610e7c82610e45565b9392505050565b6000815180845260005b81811015610ea957602081850181015186830182015201610e8d565b81811115610ebb576000602083870101525b50601f01601f19169290920160200192915050565b60006020808301818452808551808352604092508286019150828160051b87010184880160005b83811015610f4a57888303603f19018552815180516001600160a01b0316845287810151888501528601516060878501819052610f3681860183610e83565b968901969450505090860190600101610ef7565b509098975050505050505050565b60008083601f840112610f6a57600080fd5b50813567ffffffffffffffff811115610f8257600080fd5b602083019150836020828501011115610f9a57600080fd5b9250929050565b60008060208385031215610fb457600080fd5b823567ffffffffffffffff811115610fcb57600080fd5b610fd785828601610f58565b90969095509350505050565b600080600060408486031215610ff857600080fd5b61100184610e45565b9250602084013567ffffffffffffffff81111561101d57600080fd5b61102986828701610f58565b9497909650939450505050565b60006020808301818452808551808352604092508286019150828160051b87010184880160005b83811015610f4a57888303603f190185528151805187855261108188860182610e83565b918901516001600160a01b0316948901949094529487019492509086019060010161105d565b60006020808301818452808551808352604092508286019150828160051b87010184880160005b83811015610f4a57888303603f19018552815180516001600160a01b0316845287015187840187905261110387850182610e83565b95880195935050908601906001016110ce565b602081526000610e7c6020830184610e83565b600181811c9082168061113d57607f821691505b6020821081141561115e57634e487b7160e01b600052602260045260246000fd5b50919050565b634e487b7160e01b600052603260045260246000fd5b600060001982141561119c57634e487b7160e01b600052601160045260246000fd5b506001019056fea264697066735822122056dfbbe8157061cf63f9f5940ea2496b2d2c8fcaad199de9d887703d215861cd64736f6c63430008090033","opcodes":"PUSH1 0x80 PUSH1 0x40 MSTORE CALLVALUE DUP1 ISZERO PUSH2 0x10 JUMPI PUSH1 0x0 DUP1 REVERT JUMPDEST POP PUSH2 0x11D9 DUP1 PUSH2 0x20 PUSH1 0x0 CODECOPY PUSH1 0x0 RETURN INVALID PUSH1 0x80 PUSH1 0x40 MSTORE CALLVALUE DUP1 ISZERO PUSH2 0x10 JUMPI PUSH1 0x0 DUP1 REVERT JUMPDEST POP PUSH1 0x4 CALLDATASIZE LT PUSH2 0x88 JUMPI PUSH1 0x0 CALLDATALOAD PUSH1 0xE0 SHR DUP1 PUSH4 0xA24D41DE GT PUSH2 0x5B JUMPI DUP1 PUSH4 0xA24D41DE EQ PUSH2 0xFD JUMPI DUP1 PUSH4 0xBD0F4D0D EQ PUSH2 0x112 JUMPI DUP1 PUSH4 0xCE43C032 EQ PUSH2 0x127 JUMPI DUP1 PUSH4 0xDE6F24BB EQ PUSH2 0x147 JUMPI PUSH1 0x0 DUP1 REVERT JUMPDEST DUP1 PUSH4 0x133F50F5 EQ PUSH2 0x8D JUMPI DUP1 PUSH4 0x255E9C11 EQ PUSH2 0xB5 JUMPI DUP1 PUSH4 0x298DAF5B EQ PUSH2 0xD5 JUMPI DUP1 PUSH4 0x3B9F708D EQ PUSH2 0xEA JUMPI JUMPDEST PUSH1 0x0 DUP1 REVERT JUMPDEST PUSH2 0xA0 PUSH2 0x9B CALLDATASIZE PUSH1 0x4 PUSH2 0xE61 JUMP JUMPDEST PUSH2 0x15A JUMP JUMPDEST PUSH1 0x40 MLOAD SWAP1 ISZERO ISZERO DUP2 MSTORE PUSH1 0x20 ADD JUMPDEST PUSH1 0x40 MLOAD DUP1 SWAP2 SUB SWAP1 RETURN JUMPDEST PUSH2 0xC8 PUSH2 0xC3 CALLDATASIZE PUSH1 0x4 PUSH2 0xE61 JUMP JUMPDEST PUSH2 0x18A JUMP JUMPDEST PUSH1 0x40 MLOAD PUSH2 0xAC SWAP2 SWAP1 PUSH2 0xED0 JUMP JUMPDEST PUSH2 0xE8 PUSH2 0xE3 CALLDATASIZE PUSH1 0x4 PUSH2 0xFA1 JUMP JUMPDEST PUSH2 0x2BD JUMP JUMPDEST STOP JUMPDEST PUSH2 0xE8 PUSH2 0xF8 CALLDATASIZE PUSH1 0x4 PUSH2 0xFE3 JUMP JUMPDEST PUSH2 0x411 JUMP JUMPDEST PUSH2 0x105 PUSH2 0x660 JUMP JUMPDEST PUSH1 0x40 MLOAD PUSH2 0xAC SWAP2 SWAP1 PUSH2 0x1036 JUMP JUMPDEST PUSH2 0x11A PUSH2 0x764 JUMP JUMPDEST PUSH1 0x40 MLOAD PUSH2 0xAC SWAP2 SWAP1 PUSH2 0x10A7 JUMP JUMPDEST PUSH2 0x13A PUSH2 0x135 CALLDATASIZE PUSH1 0x4 PUSH2 0xE61 JUMP JUMPDEST PUSH2 0x86E JUMP JUMPDEST PUSH1 0x40 MLOAD PUSH2 0xAC SWAP2 SWAP1 PUSH2 0x1116 JUMP JUMPDEST PUSH2 0xE8 PUSH2 0x155 CALLDATASIZE PUSH1 0x4 PUSH2 0xFE3 JUMP JUMPDEST PUSH2 0x966 JUMP JUMPDEST PUSH1 0x1 PUSH1 0x1 PUSH1 0xA0 SHL SUB DUP2 AND PUSH1 0x0 SWAP1 DUP2 MSTORE PUSH1 0x1 PUSH1 0x20 MSTORE PUSH1 0x40 DUP2 KECCAK256 DUP1 SLOAD DUP3 SWAP2 SWAP1 PUSH2 0x180 SWAP1 PUSH2 0x1129 JUMP JUMPDEST SWAP1 POP GT SWAP1 POP SWAP2 SWAP1 POP JUMP JUMPDEST PUSH1 0x60 PUSH1 0x0 PUSH2 0x198 CALLER DUP5 PUSH2 0xB43 JUMP JUMPDEST SWAP1 POP PUSH1 0x2 PUSH1 0x0 DUP3 DUP2 MSTORE PUSH1 0x20 ADD SWAP1 DUP2 MSTORE PUSH1 0x20 ADD PUSH1 0x0 KECCAK256 DUP1 SLOAD DUP1 PUSH1 0x20 MUL PUSH1 0x20 ADD PUSH1 0x40 MLOAD SWAP1 DUP2 ADD PUSH1 0x40 MSTORE DUP1 SWAP3 SWAP2 SWAP1 DUP2 DUP2 MSTORE PUSH1 0x20 ADD PUSH1 0x0 SWAP1 JUMPDEST DUP3 DUP3 LT ISZERO PUSH2 0x2B1 JUMPI PUSH1 0x0 DUP5 DUP2 MSTORE PUSH1 0x20 SWAP1 DUP2 SWAP1 KECCAK256 PUSH1 0x40 DUP1 MLOAD PUSH1 0x60 DUP2 ADD DUP3 MSTORE PUSH1 0x3 DUP7 MUL SWAP1 SWAP3 ADD DUP1 SLOAD PUSH1 0x1 PUSH1 0x1 PUSH1 0xA0 SHL SUB AND DUP4 MSTORE PUSH1 0x1 DUP2 ADD SLOAD SWAP4 DUP4 ADD SWAP4 SWAP1 SWAP4 MSTORE PUSH1 0x2 DUP4 ADD DUP1 SLOAD SWAP3 SWAP4 SWAP3 SWAP2 DUP5 ADD SWAP2 PUSH2 0x220 SWAP1 PUSH2 0x1129 JUMP JUMPDEST DUP1 PUSH1 0x1F ADD PUSH1 0x20 DUP1 SWAP2 DIV MUL PUSH1 0x20 ADD PUSH1 0x40 MLOAD SWAP1 DUP2 ADD PUSH1 0x40 MSTORE DUP1 SWAP3 SWAP2 SWAP1 DUP2 DUP2 MSTORE PUSH1 0x20 ADD DUP3 DUP1 SLOAD PUSH2 0x24C SWAP1 PUSH2 0x1129 JUMP JUMPDEST DUP1 ISZERO PUSH2 0x299 JUMPI DUP1 PUSH1 0x1F LT PUSH2 0x26E JUMPI PUSH2 0x100 DUP1 DUP4 SLOAD DIV MUL DUP4 MSTORE SWAP2 PUSH1 0x20 ADD SWAP2 PUSH2 0x299 JUMP JUMPDEST DUP3 ADD SWAP2 SWAP1 PUSH1 0x0 MSTORE PUSH1 0x20 PUSH1 0x0 KECCAK256 SWAP1 JUMPDEST DUP2 SLOAD DUP2 MSTORE SWAP1 PUSH1 0x1 ADD SWAP1 PUSH1 0x20 ADD DUP1 DUP4 GT PUSH2 0x27C JUMPI DUP3 SWAP1 SUB PUSH1 0x1F AND DUP3 ADD SWAP2 JUMPDEST POP POP POP POP POP DUP2 MSTORE POP POP DUP2 MSTORE PUSH1 0x20 ADD SWAP1 PUSH1 0x1 ADD SWAP1 PUSH2 0x1CD JUMP JUMPDEST POP POP POP POP SWAP2 POP POP SWAP2 SWAP1 POP JUMP JUMPDEST PUSH2 0x2C6 CALLER PUSH2 0x15A JUMP JUMPDEST ISZERO PUSH2 0x30E JUMPI PUSH1 0x40 MLOAD PUSH3 0x461BCD PUSH1 0xE5 SHL DUP2 MSTORE PUSH1 0x20 PUSH1 0x4 DUP3 ADD MSTORE PUSH1 0x13 PUSH1 0x24 DUP3 ADD MSTORE PUSH19 0x5573657220616C726561647920657869737473 PUSH1 0x68 SHL PUSH1 0x44 DUP3 ADD MSTORE PUSH1 0x64 ADD JUMPDEST PUSH1 0x40 MLOAD DUP1 SWAP2 SUB SWAP1 REVERT JUMPDEST DUP1 PUSH2 0x35B JUMPI PUSH1 0x40 MLOAD PUSH3 0x461BCD PUSH1 0xE5 SHL DUP2 MSTORE PUSH1 0x20 PUSH1 0x4 DUP3 ADD MSTORE PUSH1 0x18 PUSH1 0x24 DUP3 ADD MSTORE PUSH32 0x557365726E616D652063616E6E6F7420626520656D7074790000000000000000 PUSH1 0x44 DUP3 ADD MSTORE PUSH1 0x64 ADD PUSH2 0x305 JUMP JUMPDEST CALLER PUSH1 0x0 SWAP1 DUP2 MSTORE PUSH1 0x1 PUSH1 0x20 MSTORE PUSH1 0x40 SWAP1 KECCAK256 PUSH2 0x375 SWAP1 DUP4 DUP4 PUSH2 0xD38 JUMP JUMPDEST POP PUSH1 0x40 DUP1 MLOAD PUSH1 0x60 PUSH1 0x20 PUSH1 0x1F DUP6 ADD DUP2 SWAP1 DIV MUL DUP3 ADD DUP2 ADD DUP4 MSTORE SWAP2 DUP2 ADD DUP4 DUP2 MSTORE PUSH1 0x0 SWAP3 DUP3 SWAP2 SWAP1 DUP7 SWAP1 DUP7 SWAP1 DUP2 SWAP1 DUP6 ADD DUP4 DUP3 DUP1 DUP3 DUP5 CALLDATACOPY PUSH1 0x0 SWAP3 ADD DUP3 SWAP1 MSTORE POP SWAP4 DUP6 MSTORE POP POP CALLER PUSH1 0x20 SWAP4 DUP5 ADD MSTORE POP DUP4 SLOAD PUSH1 0x1 DUP2 ADD DUP6 SSTORE SWAP4 DUP2 MSTORE DUP2 SWAP1 KECCAK256 DUP3 MLOAD DUP1 MLOAD SWAP4 SWAP5 PUSH1 0x2 MUL SWAP1 SWAP2 ADD SWAP3 PUSH2 0x3E3 SWAP3 DUP5 SWAP3 ADD SWAP1 PUSH2 0xDBC JUMP JUMPDEST POP PUSH1 0x20 SWAP2 SWAP1 SWAP2 ADD MLOAD PUSH1 0x1 SWAP1 SWAP2 ADD DUP1 SLOAD PUSH1 0x1 PUSH1 0x1 PUSH1 0xA0 SHL SUB NOT AND PUSH1 0x1 PUSH1 0x1 PUSH1 0xA0 SHL SUB SWAP1 SWAP3 AND SWAP2 SWAP1 SWAP2 OR SWAP1 SSTORE POP POP JUMP JUMPDEST PUSH2 0x41A CALLER PUSH2 0x15A JUMP JUMPDEST PUSH2 0x460 JUMPI PUSH1 0x40 MLOAD PUSH3 0x461BCD PUSH1 0xE5 SHL DUP2 MSTORE PUSH1 0x20 PUSH1 0x4 DUP3 ADD MSTORE PUSH1 0x17 PUSH1 0x24 DUP3 ADD MSTORE PUSH23 0x10DC99585D1948185B881858D8DBDD5B9D08199A5C9CDD PUSH1 0x4A SHL PUSH1 0x44 DUP3 ADD MSTORE PUSH1 0x64 ADD PUSH2 0x305 JUMP JUMPDEST PUSH2 0x469 DUP4 PUSH2 0x15A JUMP JUMPDEST PUSH2 0x4B5 JUMPI PUSH1 0x40 MLOAD PUSH3 0x461BCD PUSH1 0xE5 SHL DUP2 MSTORE PUSH1 0x20 PUSH1 0x4 DUP3 ADD MSTORE PUSH1 0x17 PUSH1 0x24 DUP3 ADD MSTORE PUSH32 0x55736572206973206E6F74207265676973746572656421000000000000000000 PUSH1 0x44 DUP3 ADD MSTORE PUSH1 0x64 ADD PUSH2 0x305 JUMP JUMPDEST CALLER PUSH1 0x1 PUSH1 0x1 PUSH1 0xA0 SHL SUB DUP5 AND EQ ISZERO PUSH2 0x51E JUMPI PUSH1 0x40 MLOAD PUSH3 0x461BCD PUSH1 0xE5 SHL DUP2 MSTORE PUSH1 0x20 PUSH1 0x4 DUP3 ADD MSTORE PUSH1 0x27 PUSH1 0x24 DUP3 ADD MSTORE PUSH32 0x55736572732063616E6E6F7420616464207468656D6573656C76657320617320 PUSH1 0x44 DUP3 ADD MSTORE PUSH7 0x667269656E6473 PUSH1 0xC8 SHL PUSH1 0x64 DUP3 ADD MSTORE PUSH1 0x84 ADD PUSH2 0x305 JUMP JUMPDEST PUSH2 0x528 CALLER DUP5 PUSH2 0xBDA JUMP JUMPDEST ISZERO PUSH2 0x575 JUMPI PUSH1 0x40 MLOAD PUSH3 0x461BCD PUSH1 0xE5 SHL DUP2 MSTORE PUSH1 0x20 PUSH1 0x4 DUP3 ADD MSTORE PUSH1 0x1F PUSH1 0x24 DUP3 ADD MSTORE PUSH32 0x54686573652075736572732061726520616C726561647920667269656E647300 PUSH1 0x44 DUP3 ADD MSTORE PUSH1 0x64 ADD PUSH2 0x305 JUMP JUMPDEST PUSH2 0x5B6 CALLER DUP5 DUP5 DUP5 DUP1 DUP1 PUSH1 0x1F ADD PUSH1 0x20 DUP1 SWAP2 DIV MUL PUSH1 0x20 ADD PUSH1 0x40 MLOAD SWAP1 DUP2 ADD PUSH1 0x40 MSTORE DUP1 SWAP4 SWAP3 SWAP2 SWAP1 DUP2 DUP2 MSTORE PUSH1 0x20 ADD DUP4 DUP4 DUP1 DUP3 DUP5 CALLDATACOPY PUSH1 0x0 SWAP3 ADD SWAP2 SWAP1 SWAP2 MSTORE POP PUSH2 0xCBE SWAP3 POP POP POP JUMP JUMPDEST CALLER PUSH1 0x0 DUP2 DUP2 MSTORE PUSH1 0x1 PUSH1 0x20 MSTORE PUSH1 0x40 SWAP1 KECCAK256 DUP1 SLOAD PUSH2 0x65B SWAP3 DUP7 SWAP3 SWAP1 SWAP2 PUSH2 0x5D8 SWAP1 PUSH2 0x1129 JUMP JUMPDEST DUP1 PUSH1 0x1F ADD PUSH1 0x20 DUP1 SWAP2 DIV MUL PUSH1 0x20 ADD PUSH1 0x40 MLOAD SWAP1 DUP2 ADD PUSH1 0x40 MSTORE DUP1 SWAP3 SWAP2 SWAP1 DUP2 DUP2 MSTORE PUSH1 0x20 ADD DUP3 DUP1 SLOAD PUSH2 0x604 SWAP1 PUSH2 0x1129 JUMP JUMPDEST DUP1 ISZERO PUSH2 0x651 JUMPI DUP1 PUSH1 0x1F LT PUSH2 0x626 JUMPI PUSH2 0x100 DUP1 DUP4 SLOAD DIV MUL DUP4 MSTORE SWAP2 PUSH1 0x20 ADD SWAP2 PUSH2 0x651 JUMP JUMPDEST DUP3 ADD SWAP2 SWAP1 PUSH1 0x0 MSTORE PUSH1 0x20 PUSH1 0x0 KECCAK256 SWAP1 JUMPDEST DUP2 SLOAD DUP2 MSTORE SWAP1 PUSH1 0x1 ADD SWAP1 PUSH1 0x20 ADD DUP1 DUP4 GT PUSH2 0x634 JUMPI DUP3 SWAP1 SUB PUSH1 0x1F AND DUP3 ADD SWAP2 JUMPDEST POP POP POP POP POP PUSH2 0xCBE JUMP JUMPDEST POP POP POP JUMP JUMPDEST PUSH1 0x60 PUSH1 0x0 DUP1 SLOAD DUP1 PUSH1 0x20 MUL PUSH1 0x20 ADD PUSH1 0x40 MLOAD SWAP1 DUP2 ADD PUSH1 0x40 MSTORE DUP1 SWAP3 SWAP2 SWAP1 DUP2 DUP2 MSTORE PUSH1 0x20 ADD PUSH1 0x0 SWAP1 JUMPDEST DUP3 DUP3 LT ISZERO PUSH2 0x75B JUMPI DUP4 DUP3 SWAP1 PUSH1 0x0 MSTORE PUSH1 0x20 PUSH1 0x0 KECCAK256 SWAP1 PUSH1 0x2 MUL ADD PUSH1 0x40 MLOAD DUP1 PUSH1 0x40 ADD PUSH1 0x40 MSTORE SWAP1 DUP2 PUSH1 0x0 DUP3 ADD DUP1 SLOAD PUSH2 0x6B7 SWAP1 PUSH2 0x1129 JUMP JUMPDEST DUP1 PUSH1 0x1F ADD PUSH1 0x20 DUP1 SWAP2 DIV MUL PUSH1 0x20 ADD PUSH1 0x40 MLOAD SWAP1 DUP2 ADD PUSH1 0x40 MSTORE DUP1 SWAP3 SWAP2 SWAP1 DUP2 DUP2 MSTORE PUSH1 0x20 ADD DUP3 DUP1 SLOAD PUSH2 0x6E3 SWAP1 PUSH2 0x1129 JUMP JUMPDEST DUP1 ISZERO PUSH2 0x730 JUMPI DUP1 PUSH1 0x1F LT PUSH2 0x705 JUMPI PUSH2 0x100 DUP1 DUP4 SLOAD DIV MUL DUP4 MSTORE SWAP2 PUSH1 0x20 ADD SWAP2 PUSH2 0x730 JUMP JUMPDEST DUP3 ADD SWAP2 SWAP1 PUSH1 0x0 MSTORE PUSH1 0x20 PUSH1 0x0 KECCAK256 SWAP1 JUMPDEST DUP2 SLOAD DUP2 MSTORE SWAP1 PUSH1 0x1 ADD SWAP1 PUSH1 0x20 ADD DUP1 DUP4 GT PUSH2 0x713 JUMPI DUP3 SWAP1 SUB PUSH1 0x1F AND DUP3 ADD SWAP2 JUMPDEST POP POP POP SWAP2 DUP4 MSTORE POP POP PUSH1 0x1 SWAP2 DUP3 ADD SLOAD PUSH1 0x1 PUSH1 0x1 PUSH1 0xA0 SHL SUB AND PUSH1 0x20 SWAP2 DUP3 ADD MSTORE SWAP2 DUP4 MSTORE SWAP3 SWAP1 SWAP3 ADD SWAP2 ADD PUSH2 0x684 JUMP JUMPDEST POP POP POP POP SWAP1 POP SWAP1 JUMP JUMPDEST CALLER PUSH1 0x0 SWAP1 DUP2 MSTORE PUSH1 0x1 PUSH1 0x20 DUP2 DUP2 MSTORE PUSH1 0x40 DUP1 DUP5 KECCAK256 SWAP1 SWAP3 ADD DUP1 SLOAD DUP4 MLOAD DUP2 DUP5 MUL DUP2 ADD DUP5 ADD SWAP1 SWAP5 MSTORE DUP1 DUP5 MSTORE PUSH1 0x60 SWAP5 SWAP2 SWAP3 SWAP1 SWAP2 SWAP1 DUP5 ADD JUMPDEST DUP3 DUP3 LT ISZERO PUSH2 0x75B JUMPI PUSH1 0x0 DUP5 DUP2 MSTORE PUSH1 0x20 SWAP1 DUP2 SWAP1 KECCAK256 PUSH1 0x40 DUP1 MLOAD DUP1 DUP3 ADD SWAP1 SWAP2 MSTORE PUSH1 0x2 DUP6 MUL SWAP1 SWAP2 ADD DUP1 SLOAD PUSH1 0x1 PUSH1 0x1 PUSH1 0xA0 SHL SUB AND DUP3 MSTORE PUSH1 0x1 DUP2 ADD DUP1 SLOAD SWAP3 SWAP4 SWAP2 SWAP3 SWAP2 DUP5 ADD SWAP2 PUSH2 0x7DD SWAP1 PUSH2 0x1129 JUMP JUMPDEST DUP1 PUSH1 0x1F ADD PUSH1 0x20 DUP1 SWAP2 DIV MUL PUSH1 0x20 ADD PUSH1 0x40 MLOAD SWAP1 DUP2 ADD PUSH1 0x40 MSTORE DUP1 SWAP3 SWAP2 SWAP1 DUP2 DUP2 MSTORE PUSH1 0x20 ADD DUP3 DUP1 SLOAD PUSH2 0x809 SWAP1 PUSH2 0x1129 JUMP JUMPDEST DUP1 ISZERO PUSH2 0x856 JUMPI DUP1 PUSH1 0x1F LT PUSH2 0x82B JUMPI PUSH2 0x100 DUP1 DUP4 SLOAD DIV MUL DUP4 MSTORE SWAP2 PUSH1 0x20 ADD SWAP2 PUSH2 0x856 JUMP JUMPDEST DUP3 ADD SWAP2 SWAP1 PUSH1 0x0 MSTORE PUSH1 0x20 PUSH1 0x0 KECCAK256 SWAP1 JUMPDEST DUP2 SLOAD DUP2 MSTORE SWAP1 PUSH1 0x1 ADD SWAP1 PUSH1 0x20 ADD DUP1 DUP4 GT PUSH2 0x839 JUMPI DUP3 SWAP1 SUB PUSH1 0x1F AND DUP3 ADD SWAP2 JUMPDEST POP POP POP POP POP DUP2 MSTORE POP POP DUP2 MSTORE PUSH1 0x20 ADD SWAP1 PUSH1 0x1 ADD SWAP1 PUSH2 0x795 JUMP JUMPDEST PUSH1 0x60 PUSH2 0x879 DUP3 PUSH2 0x15A JUMP JUMPDEST PUSH2 0x8BE JUMPI PUSH1 0x40 MLOAD PUSH3 0x461BCD PUSH1 0xE5 SHL DUP2 MSTORE PUSH1 0x20 PUSH1 0x4 DUP3 ADD MSTORE PUSH1 0x16 PUSH1 0x24 DUP3 ADD MSTORE PUSH22 0x155CD95C881A5CC81B9BDD081C9959DA5CDD195C9959 PUSH1 0x52 SHL PUSH1 0x44 DUP3 ADD MSTORE PUSH1 0x64 ADD PUSH2 0x305 JUMP JUMPDEST PUSH1 0x1 PUSH1 0x1 PUSH1 0xA0 SHL SUB DUP3 AND PUSH1 0x0 SWAP1 DUP2 MSTORE PUSH1 0x1 PUSH1 0x20 MSTORE PUSH1 0x40 SWAP1 KECCAK256 DUP1 SLOAD PUSH2 0x8E1 SWAP1 PUSH2 0x1129 JUMP JUMPDEST DUP1 PUSH1 0x1F ADD PUSH1 0x20 DUP1 SWAP2 DIV MUL PUSH1 0x20 ADD PUSH1 0x40 MLOAD SWAP1 DUP2 ADD PUSH1 0x40 MSTORE DUP1 SWAP3 SWAP2 SWAP1 DUP2 DUP2 MSTORE PUSH1 0x20 ADD DUP3 DUP1 SLOAD PUSH2 0x90D SWAP1 PUSH2 0x1129 JUMP JUMPDEST DUP1 ISZERO PUSH2 0x95A JUMPI DUP1 PUSH1 0x1F LT PUSH2 0x92F JUMPI PUSH2 0x100 DUP1 DUP4 SLOAD DIV MUL DUP4 MSTORE SWAP2 PUSH1 0x20 ADD SWAP2 PUSH2 0x95A JUMP JUMPDEST DUP3 ADD SWAP2 SWAP1 PUSH1 0x0 MSTORE PUSH1 0x20 PUSH1 0x0 KECCAK256 SWAP1 JUMPDEST DUP2 SLOAD DUP2 MSTORE SWAP1 PUSH1 0x1 ADD SWAP1 PUSH1 0x20 ADD DUP1 DUP4 GT PUSH2 0x93D JUMPI DUP3 SWAP1 SUB PUSH1 0x1F AND DUP3 ADD SWAP2 JUMPDEST POP POP POP POP POP SWAP1 POP SWAP2 SWAP1 POP JUMP JUMPDEST PUSH2 0x96F CALLER PUSH2 0x15A JUMP JUMPDEST PUSH2 0x9B5 JUMPI PUSH1 0x40 MLOAD PUSH3 0x461BCD PUSH1 0xE5 SHL DUP2 MSTORE PUSH1 0x20 PUSH1 0x4 DUP3 ADD MSTORE PUSH1 0x17 PUSH1 0x24 DUP3 ADD MSTORE PUSH23 0x10DC99585D1948185B881858D8DBDD5B9D08199A5C9CDD PUSH1 0x4A SHL PUSH1 0x44 DUP3 ADD MSTORE PUSH1 0x64 ADD PUSH2 0x305 JUMP JUMPDEST PUSH2 0x9BE DUP4 PUSH2 0x15A JUMP JUMPDEST PUSH2 0xA03 JUMPI PUSH1 0x40 MLOAD PUSH3 0x461BCD PUSH1 0xE5 SHL DUP2 MSTORE PUSH1 0x20 PUSH1 0x4 DUP3 ADD MSTORE PUSH1 0x16 PUSH1 0x24 DUP3 ADD MSTORE PUSH22 0x155CD95C881A5CC81B9BDD081C9959DA5CDD195C9959 PUSH1 0x52 SHL PUSH1 0x44 DUP3 ADD MSTORE PUSH1 0x64 ADD PUSH2 0x305 JUMP JUMPDEST PUSH2 0xA0D CALLER DUP5 PUSH2 0xBDA JUMP JUMPDEST PUSH2 0xA68 JUMPI PUSH1 0x40 MLOAD PUSH3 0x461BCD PUSH1 0xE5 SHL DUP2 MSTORE PUSH1 0x20 PUSH1 0x4 DUP3 ADD MSTORE PUSH1 0x26 PUSH1 0x24 DUP3 ADD MSTORE PUSH32 0x596F7520617265206E6F7420667269656E642077697468207468652067697665 PUSH1 0x44 DUP3 ADD MSTORE PUSH6 0x37103AB9B2B9 PUSH1 0xD1 SHL PUSH1 0x64 DUP3 ADD MSTORE PUSH1 0x84 ADD PUSH2 0x305 JUMP JUMPDEST PUSH1 0x0 PUSH2 0xA74 CALLER DUP6 PUSH2 0xB43 JUMP JUMPDEST SWAP1 POP PUSH1 0x0 PUSH1 0x40 MLOAD DUP1 PUSH1 0x60 ADD PUSH1 0x40 MSTORE DUP1 CALLER PUSH1 0x1 PUSH1 0x1 PUSH1 0xA0 SHL SUB AND DUP2 MSTORE PUSH1 0x20 ADD TIMESTAMP DUP2 MSTORE PUSH1 0x20 ADD DUP6 DUP6 DUP1 DUP1 PUSH1 0x1F ADD PUSH1 0x20 DUP1 SWAP2 DIV MUL PUSH1 0x20 ADD PUSH1 0x40 MLOAD SWAP1 DUP2 ADD PUSH1 0x40 MSTORE DUP1 SWAP4 SWAP3 SWAP2 SWAP1 DUP2 DUP2 MSTORE PUSH1 0x20 ADD DUP4 DUP4 DUP1 DUP3 DUP5 CALLDATACOPY PUSH1 0x0 SWAP3 ADD DUP3 SWAP1 MSTORE POP SWAP4 SWAP1 SWAP5 MSTORE POP POP DUP5 DUP2 MSTORE PUSH1 0x2 PUSH1 0x20 DUP2 DUP2 MSTORE PUSH1 0x40 DUP1 DUP5 KECCAK256 DUP1 SLOAD PUSH1 0x1 DUP1 DUP3 ADD DUP4 SSTORE SWAP2 DUP7 MSTORE SWAP5 DUP4 SWAP1 KECCAK256 DUP8 MLOAD PUSH1 0x3 SWAP1 SWAP7 MUL ADD DUP1 SLOAD PUSH1 0x1 PUSH1 0x1 PUSH1 0xA0 SHL SUB NOT AND PUSH1 0x1 PUSH1 0x1 PUSH1 0xA0 SHL SUB SWAP1 SWAP7 AND SWAP6 SWAP1 SWAP6 OR DUP6 SSTORE DUP7 DUP4 ADD MLOAD SWAP1 DUP6 ADD SSTORE DUP6 ADD MLOAD DUP1 MLOAD SWAP6 SWAP7 POP DUP7 SWAP6 SWAP4 SWAP5 POP PUSH2 0xB39 SWAP4 SWAP3 DUP6 ADD SWAP3 SWAP2 ADD SWAP1 PUSH2 0xDBC JUMP JUMPDEST POP POP POP POP POP POP POP POP JUMP JUMPDEST PUSH1 0x0 DUP2 PUSH1 0x1 PUSH1 0x1 PUSH1 0xA0 SHL SUB AND DUP4 PUSH1 0x1 PUSH1 0x1 PUSH1 0xA0 SHL SUB AND LT ISZERO PUSH2 0xBA6 JUMPI PUSH1 0x40 MLOAD PUSH12 0xFFFFFFFFFFFFFFFFFFFFFFFF NOT PUSH1 0x60 DUP6 DUP2 SHL DUP3 AND PUSH1 0x20 DUP5 ADD MSTORE DUP5 SWAP1 SHL AND PUSH1 0x34 DUP3 ADD MSTORE PUSH1 0x48 ADD JUMPDEST PUSH1 0x40 MLOAD PUSH1 0x20 DUP2 DUP4 SUB SUB DUP2 MSTORE SWAP1 PUSH1 0x40 MSTORE DUP1 MLOAD SWAP1 PUSH1 0x20 ADD KECCAK256 SWAP1 POP PUSH2 0xBD4 JUMP JUMPDEST PUSH1 0x40 MLOAD PUSH12 0xFFFFFFFFFFFFFFFFFFFFFFFF NOT PUSH1 0x60 DUP5 DUP2 SHL DUP3 AND PUSH1 0x20 DUP5 ADD MSTORE DUP6 SWAP1 SHL AND PUSH1 0x34 DUP3 ADD MSTORE PUSH1 0x48 ADD PUSH2 0xB89 JUMP JUMPDEST SWAP3 SWAP2 POP POP JUMP JUMPDEST PUSH1 0x1 PUSH1 0x1 PUSH1 0xA0 SHL SUB DUP1 DUP3 AND PUSH1 0x0 SWAP1 DUP2 MSTORE PUSH1 0x1 PUSH1 0x20 DUP2 SWAP1 MSTORE PUSH1 0x40 DUP1 DUP4 KECCAK256 DUP3 ADD SLOAD SWAP4 DUP7 AND DUP4 MSTORE DUP3 KECCAK256 ADD SLOAD SWAP1 SWAP2 LT ISZERO PUSH2 0xC0E JUMPI SWAP1 SWAP2 SWAP1 JUMPDEST PUSH1 0x0 JUMPDEST PUSH1 0x1 PUSH1 0x1 PUSH1 0xA0 SHL SUB DUP5 AND PUSH1 0x0 SWAP1 DUP2 MSTORE PUSH1 0x1 PUSH1 0x20 DUP2 SWAP1 MSTORE PUSH1 0x40 SWAP1 SWAP2 KECCAK256 ADD SLOAD DUP2 LT ISZERO PUSH2 0xCB4 JUMPI DUP3 PUSH1 0x1 PUSH1 0x1 PUSH1 0xA0 SHL SUB AND PUSH1 0x1 PUSH1 0x0 DUP7 PUSH1 0x1 PUSH1 0x1 PUSH1 0xA0 SHL SUB AND PUSH1 0x1 PUSH1 0x1 PUSH1 0xA0 SHL SUB AND DUP2 MSTORE PUSH1 0x20 ADD SWAP1 DUP2 MSTORE PUSH1 0x20 ADD PUSH1 0x0 KECCAK256 PUSH1 0x1 ADD DUP3 DUP2 SLOAD DUP2 LT PUSH2 0xC78 JUMPI PUSH2 0xC78 PUSH2 0x1164 JUMP JUMPDEST PUSH1 0x0 SWAP2 DUP3 MSTORE PUSH1 0x20 SWAP1 SWAP2 KECCAK256 PUSH1 0x2 SWAP1 SWAP2 MUL ADD SLOAD PUSH1 0x1 PUSH1 0x1 PUSH1 0xA0 SHL SUB AND EQ ISZERO PUSH2 0xCA2 JUMPI PUSH1 0x1 SWAP2 POP POP PUSH2 0xBD4 JUMP JUMPDEST DUP1 PUSH2 0xCAC DUP2 PUSH2 0x117A JUMP JUMPDEST SWAP2 POP POP PUSH2 0xC11 JUMP JUMPDEST POP PUSH1 0x0 SWAP4 SWAP3 POP POP POP JUMP JUMPDEST PUSH1 0x40 DUP1 MLOAD DUP1 DUP3 ADD DUP3 MSTORE PUSH1 0x1 PUSH1 0x1 PUSH1 0xA0 SHL SUB DUP5 DUP2 AND DUP3 MSTORE PUSH1 0x20 DUP1 DUP4 ADD DUP6 DUP2 MSTORE DUP8 DUP4 AND PUSH1 0x0 SWAP1 DUP2 MSTORE PUSH1 0x1 DUP1 DUP5 MSTORE SWAP6 DUP2 KECCAK256 DUP7 ADD DUP1 SLOAD DUP1 DUP9 ADD DUP3 SSTORE SWAP1 DUP3 MSTORE SWAP1 DUP4 SWAP1 KECCAK256 DUP6 MLOAD PUSH1 0x2 SWAP1 SWAP3 MUL ADD DUP1 SLOAD PUSH1 0x1 PUSH1 0x1 PUSH1 0xA0 SHL SUB NOT AND SWAP2 SWAP1 SWAP5 AND OR DUP4 SSTORE MLOAD DUP1 MLOAD SWAP4 SWAP5 DUP6 SWAP5 PUSH2 0xD2F SWAP4 SWAP2 DUP6 ADD SWAP3 SWAP1 SWAP2 ADD SWAP1 PUSH2 0xDBC JUMP JUMPDEST POP POP POP POP POP POP POP JUMP JUMPDEST DUP3 DUP1 SLOAD PUSH2 0xD44 SWAP1 PUSH2 0x1129 JUMP JUMPDEST SWAP1 PUSH1 0x0 MSTORE PUSH1 0x20 PUSH1 0x0 KECCAK256 SWAP1 PUSH1 0x1F ADD PUSH1 0x20 SWAP1 DIV DUP2 ADD SWAP3 DUP3 PUSH2 0xD66 JUMPI PUSH1 0x0 DUP6 SSTORE PUSH2 0xDAC JUMP JUMPDEST DUP3 PUSH1 0x1F LT PUSH2 0xD7F JUMPI DUP3 DUP1 ADD PUSH1 0xFF NOT DUP3 CALLDATALOAD AND OR DUP6 SSTORE PUSH2 0xDAC JUMP JUMPDEST DUP3 DUP1 ADD PUSH1 0x1 ADD DUP6 SSTORE DUP3 ISZERO PUSH2 0xDAC JUMPI SWAP2 DUP3 ADD JUMPDEST DUP3 DUP2 GT ISZERO PUSH2 0xDAC JUMPI DUP3 CALLDATALOAD DUP3 SSTORE SWAP2 PUSH1 0x20 ADD SWAP2 SWAP1 PUSH1 0x1 ADD SWAP1 PUSH2 0xD91 JUMP JUMPDEST POP PUSH2 0xDB8 SWAP3 SWAP2 POP PUSH2 0xE30 JUMP JUMPDEST POP SWAP1 JUMP JUMPDEST DUP3 DUP1 SLOAD PUSH2 0xDC8 SWAP1 PUSH2 0x1129 JUMP JUMPDEST SWAP1 PUSH1 0x0 MSTORE PUSH1 0x20 PUSH1 0x0 KECCAK256 SWAP1 PUSH1 0x1F ADD PUSH1 0x20 SWAP1 DIV DUP2 ADD SWAP3 DUP3 PUSH2 0xDEA JUMPI PUSH1 0x0 DUP6 SSTORE PUSH2 0xDAC JUMP JUMPDEST DUP3 PUSH1 0x1F LT PUSH2 0xE03 JUMPI DUP1 MLOAD PUSH1 0xFF NOT AND DUP4 DUP1 ADD OR DUP6 SSTORE PUSH2 0xDAC JUMP JUMPDEST DUP3 DUP1 ADD PUSH1 0x1 ADD DUP6 SSTORE DUP3 ISZERO PUSH2 0xDAC JUMPI SWAP2 DUP3 ADD JUMPDEST DUP3 DUP2 GT ISZERO PUSH2 0xDAC JUMPI DUP3 MLOAD DUP3 SSTORE SWAP2 PUSH1 0x20 ADD SWAP2 SWAP1 PUSH1 0x1 ADD SWAP1 PUSH2 0xE15 JUMP JUMPDEST JUMPDEST DUP1 DUP3 GT ISZERO PUSH2 0xDB8 JUMPI PUSH1 0x0 DUP2 SSTORE PUSH1 0x1 ADD PUSH2 0xE31 JUMP JUMPDEST DUP1 CALLDATALOAD PUSH1 0x1 PUSH1 0x1 PUSH1 0xA0 SHL SUB DUP2 AND DUP2 EQ PUSH2 0xE5C JUMPI PUSH1 0x0 DUP1 REVERT JUMPDEST SWAP2 SWAP1 POP JUMP JUMPDEST PUSH1 0x0 PUSH1 0x20 DUP3 DUP5 SUB SLT ISZERO PUSH2 0xE73 JUMPI PUSH1 0x0 DUP1 REVERT JUMPDEST PUSH2 0xE7C DUP3 PUSH2 0xE45 JUMP JUMPDEST SWAP4 SWAP3 POP POP POP JUMP JUMPDEST PUSH1 0x0 DUP2 MLOAD DUP1 DUP5 MSTORE PUSH1 0x0 JUMPDEST DUP2 DUP2 LT ISZERO PUSH2 0xEA9 JUMPI PUSH1 0x20 DUP2 DUP6 ADD DUP2 ADD MLOAD DUP7 DUP4 ADD DUP3 ADD MSTORE ADD PUSH2 0xE8D JUMP JUMPDEST DUP2 DUP2 GT ISZERO PUSH2 0xEBB JUMPI PUSH1 0x0 PUSH1 0x20 DUP4 DUP8 ADD ADD MSTORE JUMPDEST POP PUSH1 0x1F ADD PUSH1 0x1F NOT AND SWAP3 SWAP1 SWAP3 ADD PUSH1 0x20 ADD SWAP3 SWAP2 POP POP JUMP JUMPDEST PUSH1 0x0 PUSH1 0x20 DUP1 DUP4 ADD DUP2 DUP5 MSTORE DUP1 DUP6 MLOAD DUP1 DUP4 MSTORE PUSH1 0x40 SWAP3 POP DUP3 DUP7 ADD SWAP2 POP DUP3 DUP2 PUSH1 0x5 SHL DUP8 ADD ADD DUP5 DUP9 ADD PUSH1 0x0 JUMPDEST DUP4 DUP2 LT ISZERO PUSH2 0xF4A JUMPI DUP9 DUP4 SUB PUSH1 0x3F NOT ADD DUP6 MSTORE DUP2 MLOAD DUP1 MLOAD PUSH1 0x1 PUSH1 0x1 PUSH1 0xA0 SHL SUB AND DUP5 MSTORE DUP8 DUP2 ADD MLOAD DUP9 DUP6 ADD MSTORE DUP7 ADD MLOAD PUSH1 0x60 DUP8 DUP6 ADD DUP2 SWAP1 MSTORE PUSH2 0xF36 DUP2 DUP7 ADD DUP4 PUSH2 0xE83 JUMP JUMPDEST SWAP7 DUP10 ADD SWAP7 SWAP5 POP POP POP SWAP1 DUP7 ADD SWAP1 PUSH1 0x1 ADD PUSH2 0xEF7 JUMP JUMPDEST POP SWAP1 SWAP9 SWAP8 POP POP POP POP POP POP POP POP JUMP JUMPDEST PUSH1 0x0 DUP1 DUP4 PUSH1 0x1F DUP5 ADD SLT PUSH2 0xF6A JUMPI PUSH1 0x0 DUP1 REVERT JUMPDEST POP DUP2 CALLDATALOAD PUSH8 0xFFFFFFFFFFFFFFFF DUP2 GT ISZERO PUSH2 0xF82 JUMPI PUSH1 0x0 DUP1 REVERT JUMPDEST PUSH1 0x20 DUP4 ADD SWAP2 POP DUP4 PUSH1 0x20 DUP3 DUP6 ADD ADD GT ISZERO PUSH2 0xF9A JUMPI PUSH1 0x0 DUP1 REVERT JUMPDEST SWAP3 POP SWAP3 SWAP1 POP JUMP JUMPDEST PUSH1 0x0 DUP1 PUSH1 0x20 DUP4 DUP6 SUB SLT ISZERO PUSH2 0xFB4 JUMPI PUSH1 0x0 DUP1 REVERT JUMPDEST DUP3 CALLDATALOAD PUSH8 0xFFFFFFFFFFFFFFFF DUP2 GT ISZERO PUSH2 0xFCB JUMPI PUSH1 0x0 DUP1 REVERT JUMPDEST PUSH2 0xFD7 DUP6 DUP3 DUP7 ADD PUSH2 0xF58 JUMP JUMPDEST SWAP1 SWAP7 SWAP1 SWAP6 POP SWAP4 POP POP POP POP JUMP JUMPDEST PUSH1 0x0 DUP1 PUSH1 0x0 PUSH1 0x40 DUP5 DUP7 SUB SLT ISZERO PUSH2 0xFF8 JUMPI PUSH1 0x0 DUP1 REVERT JUMPDEST PUSH2 0x1001 DUP5 PUSH2 0xE45 JUMP JUMPDEST SWAP3 POP PUSH1 0x20 DUP5 ADD CALLDATALOAD PUSH8 0xFFFFFFFFFFFFFFFF DUP2 GT ISZERO PUSH2 0x101D JUMPI PUSH1 0x0 DUP1 REVERT JUMPDEST PUSH2 0x1029 DUP7 DUP3 DUP8 ADD PUSH2 0xF58 JUMP JUMPDEST SWAP5 SWAP8 SWAP1 SWAP7 POP SWAP4 SWAP5 POP POP POP POP JUMP JUMPDEST PUSH1 0x0 PUSH1 0x20 DUP1 DUP4 ADD DUP2 DUP5 MSTORE DUP1 DUP6 MLOAD DUP1 DUP4 MSTORE PUSH1 0x40 SWAP3 POP DUP3 DUP7 ADD SWAP2 POP DUP3 DUP2 PUSH1 0x5 SHL DUP8 ADD ADD DUP5 DUP9 ADD PUSH1 0x0 JUMPDEST DUP4 DUP2 LT ISZERO PUSH2 0xF4A JUMPI DUP9 DUP4 SUB PUSH1 0x3F NOT ADD DUP6 MSTORE DUP2 MLOAD DUP1 MLOAD DUP8 DUP6 MSTORE PUSH2 0x1081 DUP9 DUP7 ADD DUP3 PUSH2 0xE83 JUMP JUMPDEST SWAP2 DUP10 ADD MLOAD PUSH1 0x1 PUSH1 0x1 PUSH1 0xA0 SHL SUB AND SWAP5 DUP10 ADD SWAP5 SWAP1 SWAP5 MSTORE SWAP5 DUP8 ADD SWAP5 SWAP3 POP SWAP1 DUP7 ADD SWAP1 PUSH1 0x1 ADD PUSH2 0x105D JUMP JUMPDEST PUSH1 0x0 PUSH1 0x20 DUP1 DUP4 ADD DUP2 DUP5 MSTORE DUP1 DUP6 MLOAD DUP1 DUP4 MSTORE PUSH1 0x40 SWAP3 POP DUP3 DUP7 ADD SWAP2 POP DUP3 DUP2 PUSH1 0x5 SHL DUP8 ADD ADD DUP5 DUP9 ADD PUSH1 0x0 JUMPDEST DUP4 DUP2 LT ISZERO PUSH2 0xF4A JUMPI DUP9 DUP4 SUB PUSH1 0x3F NOT ADD DUP6 MSTORE DUP2 MLOAD DUP1 MLOAD PUSH1 0x1 PUSH1 0x1 PUSH1 0xA0 SHL SUB AND DUP5 MSTORE DUP8 ADD MLOAD DUP8 DUP5 ADD DUP8 SWAP1 MSTORE PUSH2 0x1103 DUP8 DUP6 ADD DUP3 PUSH2 0xE83 JUMP JUMPDEST SWAP6 DUP9 ADD SWAP6 SWAP4 POP POP SWAP1 DUP7 ADD SWAP1 PUSH1 0x1 ADD PUSH2 0x10CE JUMP JUMPDEST PUSH1 0x20 DUP2 MSTORE PUSH1 0x0 PUSH2 0xE7C PUSH1 0x20 DUP4 ADD DUP5 PUSH2 0xE83 JUMP JUMPDEST PUSH1 0x1 DUP2 DUP2 SHR SWAP1 DUP3 AND DUP1 PUSH2 0x113D JUMPI PUSH1 0x7F DUP3 AND SWAP2 POP JUMPDEST PUSH1 0x20 DUP3 LT DUP2 EQ ISZERO PUSH2 0x115E JUMPI PUSH4 0x4E487B71 PUSH1 0xE0 SHL PUSH1 0x0 MSTORE PUSH1 0x22 PUSH1 0x4 MSTORE PUSH1 0x24 PUSH1 0x0 REVERT JUMPDEST POP SWAP2 SWAP1 POP JUMP JUMPDEST PUSH4 0x4E487B71 PUSH1 0xE0 SHL PUSH1 0x0 MSTORE PUSH1 0x32 PUSH1 0x4 MSTORE PUSH1 0x24 PUSH1 0x0 REVERT JUMPDEST PUSH1 0x0 PUSH1 0x0 NOT DUP3 EQ ISZERO PUSH2 0x119C JUMPI PUSH4 0x4E487B71 PUSH1 0xE0 SHL PUSH1 0x0 MSTORE PUSH1 0x11 PUSH1 0x4 MSTORE PUSH1 0x24 PUSH1 0x0 REVERT JUMPDEST POP PUSH1 0x1 ADD SWAP1 JUMP INVALID LOG2 PUSH5 0x6970667358 0x22 SLT KECCAK256 JUMP 0xDF 0xBB 0xE8 ISZERO PUSH17 0x61CF63F9F5940EA2496B2D2C8FCAAD199D 0xE9 0xD8 DUP8 PUSH17 0x3D215861CD64736F6C6343000809003300 "},"methodIdentifiers":{"addFriend(address,string)":"3b9f708d","checkUserExists(address)":"133f50f5","createAccount(string)":"298daf5b","getAllAppUser()":"a24d41de","getMyFriendList()":"bd0f4d0d","getUsername(address)":"ce43c032","readMessage(address)":"255e9c11","sendMessage(address,string)":"de6f24bb"}}}}}